:100000000C9462000C948A000C948A000C948A0070
:100010000C948A000C948A000C948A000C948A0038
:100020000C948A000C948A000C948A000C948A0028
:100030000C948A000C948A000C948A000C948A0018
:100040000C9458060C948A000C9426060C94000616
:100050000C948A000C948A000C948A000C948A00F8
:100060000C94A2060C948A000000000024002700D3
:100070002A0000000000250028002B0000000008D6
:10008000000201000003040700000000000000005F
:1000900000000000230026002900040404040404D6
:1000A0000404020202020202030303030303010227
:1000B00004081020408001020408102001020408F6
:1000C0001020060811241FBECFEFD8E0DEBFCDBF41
:1000D00011E0A0E0B1E0E2E9FEE102C005900D927E
:1000E000A23AB107D9F723E0A2EAB1E001C01D921C
:1000F000A832B207E1F710E0C2E6D0E004C02197D1
:10010000FE010E94410FC136D107C9F70E945A086B
:100110000C94470F0C94000008950895DC01ED91B4
:10012000FC910190F081E02D0994AF92BF92CF92A3
:10013000DF92EF92FF920F931F93CF93DF936C01A7
:100140007B018B01040F151FEB015E01AE18BF0888
:10015000C017D10759F06991D601ED91FC9101903A
:10016000F081E02DC6010995892B79F7C501DF9152
:10017000CF911F910F91FF90EF90DF90CF90BF90A4
:10018000AF900895FC01538D448D252F30E0842FCE
:1001900090E0821B930B541710F0CF9608950197AF
:1001A0000895FC01918D828D981761F0A28DAE0F9C
:1001B000BF2FB11D5D968C91928D9F5F9F73928F23
:1001C00090E008958FEF9FEF0895FC01918D828D4F
:1001D000981731F0828DE80FF11D858D90E008951C
:1001E0008FEF9FEF0895FC01918D228D892F90E074
:1001F000805C9F4F821B91098F73992708958FE62A
:1002000092E00E94F30021E0892B09F420E0822F84
:10021000089580E090E0892B29F00E94FF00811171
:100220000C9400000895FC01A48DA80FB92FB11DF6
:10023000A35ABF4F2C91848D90E001968F7399271C
:10024000848FA689B7892C93A089B1898C918370FA
:1002500080648C93938D848D981306C00288F389F3
:10026000E02D80818F7D80830895EF92FF920F9320
:100270001F93CF93DF93EC0181E0888F9B8D8C8D52
:1002800098131AC0E889F989808185FF15C09FB746
:10029000F894EE89FF896083E889F9898081837009
:1002A000806480839FBF81E090E0DF91CF911F91B8
:1002B0000F91FF90EF900895F62E0B8D10E00F5FD9
:1002C0001F4F0F731127E02E8C8D8E110CC00FB6AF
:1002D00007FCFACFE889F989808185FFF5CFCE0147
:1002E0000E941301F1CFEB8DEC0FFD2FF11DE35AAE
:1002F000FF4FF0829FB7F8940B8FEA89FB898081CA
:100300008062CFCFCF93DF93EC01888D8823B9F043
:10031000AA89BB89E889F9898C9185FD03C0808110
:1003200086FD0DC00FB607FCF7CF8C9185FFF2CF8D
:10033000808185FFEDCFCE010E941301E9CFDF91CF
:10034000CF910895833081F028F4813099F0823084
:10035000A9F008958730A9F08830C9F08430B1F44D
:10036000809180008F7D03C0809180008F77809383
:100370008000089584B58F7784BD089584B58F7DFE
:10038000FBCF8091B0008F778093B000089580916B
:10039000B0008F7DF9CFCF93DF93282F30E0F901A4
:1003A000E458FF4F8491F901E255FF4FD491F901D0
:1003B000E656FF4FC491CC23A1F081110E94A20107
:1003C000EC2FF0E0EE0FFF1FE057FF4FA591B49127
:1003D000EC91ED2381E090E009F480E0DF91CF9192
:1003E000089580E090E0FACF1F93CF93DF93282FFA
:1003F00030E0F901E458FF4F8491F901E255FF4FD5
:10040000D491F901E656FF4FC491CC23A9F0162FE1
:1004100081110E94A201EC2FF0E0EE0FFF1FEE58B9
:10042000FF4FA591B4918FB7F894EC91111108C0CA
:10043000D095DE23DC938FBFDF91CF911F9108957C
:10044000DE2BF8CFCF93DF9390E0FC01E255FF4F16
:10045000249186569F4FFC0184918823C9F090E037
:10046000880F991FFC01E859FF4FA591B491FC0139
:10047000EE58FF4FC591D49161110DC09FB7F8940C
:100480008C91209582238C938881282328839FBF79
:10049000DF91CF910895623051F49FB7F8943C9169
:1004A000822F809583238C93E8812E2BEFCF8FB7FB
:1004B000F894EC912E2B2C938FBFEACF3FB7F89492
:1004C0008091590290915A02A0915B02B0915C0216
:1004D00026B5A89B05C02F3F19F00196A11DB11D9F
:1004E0003FBFBA2FA92F982F8827BC01CD01620FDB
:1004F000711D811D911D42E0660F771F881F991F96
:100500004A95D1F708958F929F92AF92BF92CF9262
:10051000DF92EF92FF924B015C010E945E026B0141
:100520007C010E945E026C197D098E099F09683E5C
:10053000734081059105A8F321E0821A9108A10872
:10054000B10888EEC80E83E0D81EE11CF11C8114AE
:100550009104A104B10429F7FF90EF90DF90CF90B0
:10056000BF90AF909F908F90089508952091E301E0
:10057000260F3327331F21323105ECF420912C0252
:10058000FC0190E080E0243069F082E00895A091C1
:10059000E3012191AC014D535E4FA40FB52FB11D66
:1005A0002C930196861798F38091E301680F60936E
:1005B000E30180E0089581E0089510922C0281E02B
:1005C00080932B021092060261E082E10E94F40106
:1005D00061E083E10E94F401E9EBF0E080818E7F2D
:1005E000808380818D7F808388E48093B80085E458
:1005F0008093BC000895CF93DF9391E09093C20164
:100600008823B9F0C091B800D091BA008091BC00A5
:100610008A7B8093BC0060E082E10E94F40160E08C
:1006200083E10E94F4010E94DD02D093BA00C093DE
:10063000B800DF91CF9108950895E0916402809110
:100640006302E81730F4F0E0EE55FE4F808190E051
:1006500008958FEF9FEF0895909164028091630257
:100660002FEF3FEF981748F4E92FF0E0EE55FE4FDB
:10067000208130E09F5F90936402C90108958091CA
:10068000630290916402891B990B0895CF92DF92C7
:10069000EF92FF920F931F93CF93DF937C01CB01D7
:1006A0008A0120913202222389F0EB016B01C40EF2
:1006B000D51ECC15DD0569F06991D701ED91FC914E
:1006C0000190F081E02DC7010995F3CF642F0E94BE
:1006D000B602C801DF91CF911F910F91FF90EF906B
:1006E000DF90CF900895CF93DF931F92CDB7DEB701
:1006F0006983209132022223F9F020916102203295
:1007000058F021E030E0FC013383228390E080E068
:100710000F90DF91CF91089580916202E82FF0E071
:10072000ED5CFD4F998190838F5F8093620280938F
:10073000610281E090E0ECCF61E0CE0101960E9481
:10074000B602F7CFCF92DF92EF92FF920F931F93F3
:10075000CF93DF93FC01C48121E020933202C09348
:10076000530210926202109261028385682B8CE022
:1007700093E00E947303D0916102D13208F092C0DD
:100780000E945E026B017C0180912C02811165C088
:1007900082E080932C0281E080932B028FEF809384
:1007A0002A0210922902D0932802A3E3B2E0E8E0E3
:1007B000F2E080E0D81385C0109207028091070212
:1007C000CC0FC82BC093070280910602813009F03C
:1007D0007CC0109206020E945E026B017C01809137
:1007E00007028093BB0080912E0290912F02A0916E
:1007F0003002B0913102892B8A2B8B2B99F00E9409
:100800005E0200912E0210912F0220913002309151
:1008100031026C197D098E099F09061717072807F1
:100820003907E0F18091BC0083FDD9CF85EC80933E
:10083000BC000E945E026B017C0180912C02823020
:1008400009F445C080912A028F3F61F180912A020C
:10085000803241F180912A0225C080912E02909130
:100860002F02A0913002B0913102892B8A2B8B2B61
:1008700009F48ACF0E945E0200912E0210912F028D
:1008800020913002309131026C197D098E099F0947
:10089000061717072807390708F076CF80912D0231
:1008A0000E94FB02109262021092610210923202C8
:1008B000DF91CF911F910F91FF90EF90DF90CF903C
:1008C00008959D9191938F5F75CF85EEB0CF809104
:1008D0002E0290912F02A0913002B0913102892B0B
:1008E0008A2B8B2B09F4A9CF0E945E0200912E0265
:1008F00010912F0220913002309131026C197D0944
:100900008E099F09061717072807390708F095CFA2
:10091000C5CF90E080E008950F931F93CF938C0193
:10092000C62F0E94A2036C2F6460C8010E94A2031C
:100930006C2F6B7FC8010E94A20383EC90E00197AB
:10094000F1F7CF911F910F9108950F931F93CF93BC
:10095000DF938C01D62FC42F607F642B0E948C0400
:1009600080E1D89FB00111246C2BC801DF91CF9199
:100970001F910F910C948C0440E061E08CE193E0B6
:100980000E94A5048BE39FE10197F1F70895CF93AF
:10099000DF93CDB7DEB728970FB6F894DEBF0FBE52
:1009A000CDBF98E0E0E0F1E0DE01119601900D92FC
:1009B0009A95E1F790912403961708F46FEF262F8C
:1009C00030E0220F331F41E050E04C0F5D1F240F39
:1009D000351FF9016081680F606840E08CE193E0A9
:1009E00028960FB6F894DEBF0FBECDBFDF91CF9132
:1009F0000C94A50441E00E94A50481E090E00895D4
:100A00000F931F93E1EBF0E06491EDE9F0E0E491E6
:100A1000F0E0EE0FFF1FE057FF4F8591949100E447
:100A200012E42FE030E0462F0E94C10761157105E6
:100A30008105910529F06F5F7F4F8F4F9F4F9F700A
:100A40001F910F910895FB0101900020E9F7319764
:100A5000AF01461B570BDC01ED91FC910280F38145
:100A6000E02D09948F929F92AF92BF92EF92FF92E6
:100A70000F931F93CF93DF93CDB7DEB7A1970FB638
:100A8000F894DEBF0FBECDBF7C01FA01CB0119A2E5
:100A9000223008F42AE08E010F5D1F4F822E912C28
:100AA000B12CA12CBF01A50194010E941F0FF901D7
:100AB000CA016A300CF5605DD8016E938D01232B5D
:100AC000242B252B79F790E080E0109721F0BD01D1
:100AD000C7010E942305A1960FB6F894DEBF0FBE92
:100AE000CDBFDF91CF911F910F91FF90EF90BF90FD
:100AF000AF909F908F900895695CDECFCF92DF9288
:100B0000EF92FF920F931F93CF93DF936B01770FB9
:100B1000EE08FF08F7FE1BC0EC016DE20E948E009C
:100B20008C0144275527BA014C195D096E097F09CC
:100B30002AE0CE010E943205800F911FDF91CF91F4
:100B40001F910F91FF90EF90DF90CF9008952AE0D2
:100B5000B701A601DF91CF911F910F91FF90EF9008
:100B6000DF90CF900C9432050F931F93CF93DF93B8
:100B7000EC010E947E058C0168E371E0CE010E94C9
:100B80002305800F911FDF91CF911F910F91089541
:100B900085ED8093BC0080912E0290912F02A09150
:100BA0003002B09131020796A11DB11D23E0B69528
:100BB000A795979587952A95D1F72091BC0024FD9C
:100BC00003C010922C02089540912E0250912F02E2
:100BD0006091300270913102452B462B472B69F30F
:100BE0000097A105B10541F025E32A95F1F7000032
:100BF0000197A109B109E1CF80912D020C94FB026C
:100C00001F920F920FB60F9211242F933F934F9381
:100C10005F936F937F938F939F93AF93BF93EF9364
:100C2000FF938FE692E00E941301FF91EF91BF9135
:100C3000AF919F918F917F916F915F914F913F9174
:100C40002F910F900FBE0F901F9018951F920F922B
:100C50000FB60F9211242F938F939F93EF93FF93CF
:100C6000E0917F02F09180028081E0918502F09115
:100C7000860282FD1BC09081809188028F5F8F73F6
:100C800020918902821741F0E0918802F0E0E15959
:100C9000FD4F958F80938802FF91EF919F918F91E7
:100CA0002F910F900FBE0F901F9018958081F4CF59
:100CB0001F920F920FB60F9211242F933F938F9391
:100CC0009F93AF93BF938091550290915602A0914C
:100CD0005702B09158023091540223E0230F2D3770
:100CE00058F50196A11DB11D209354028093550221
:100CF00090935602A0935702B093580280915902E4
:100D000090915A02A0915B02B0915C020196A11DE4
:100D1000B11D8093590290935A02A0935B02B09345
:100D20005C02BF91AF919F918F913F912F910F9056
:100D30000FBE0F901F90189526E8230F0296A11D55
:100D4000B11DD2CF1F920F920FB60F9211242F9385
:100D50003F934F935F936F937F938F939F93AF9343
:100D6000BF93EF93FF938091B900887F803609F499
:100D70004AC0F0F5883209F4A7C018F5803109F4AB
:100D80009BC0B8F4882309F4F9C0883009F494C0F2
:100D9000FF91EF91BF91AF919F918F917F916F9153
:100DA0005F914F913F912F910F900FBE0F901F9029
:100DB0001895883109F488C0803251F780932A024F
:100DC00014C0803409F49DC040F48033B9F38833F3
:100DD000F9F680932A0285ECB0C0803509F485C00D
:100DE000883509F496C0883499F60E94C805D0CF9A
:100DF000883909F48CC038F5883729F050F48836E2
:100E000011F0803729F683E080932C0210920502BE
:100E100057C0883809F47BC0803919F0803809F050
:100E2000B7CF80910502803208F071C0E0910502D1
:100E300081E08E0F809305028091BB00F0E0EB51C2
:100E4000FE4F80833DC0803B39F0E0F4803A09F4E6
:100E500079C0883A09F09CCF84E080932C021092EC
:100E6000E4011092E301E0915F02F09160020995C4
:100E70008091E30181110FC081E08093E301109222
:100E8000C30109C0803C09F4A6CF883C09F4A3CF74
:100E9000883B09F07DCFE091E40181E08E0F8093E3
:100EA000E401F0E0ED53FE4F80818093BB00909110
:100EB000E4018091E30129C0809107028093BB0087
:100EC00085EC8093BC0064CF909129028091280228
:100ED000981758F5E091290281E08E0F809329023E
:100EE000F0E0E85FFD4F8081E9CFE091290281E0E9
:100EF0008E0F809329028091BB00F0E0E85FFD4FE8
:100F0000808390912902809128029817C8F285E881
:100F1000D8CFE091290281E08E0F80932902809141
:100F2000BB00F0E0E85FFD4F808380912B028111D0
:100F30005CCF81E08093060284EA8093BC0010922B
:100F40002C0226CF85EC8093BC0010922C0280915D
:100F50000502803230F4E0910502F0E0EB51FE4FE3
:100F600010826091050270E0E0915D02F0915E02F6
:100F700085EE91E00995109205020ACF10922A029F
:100F800034CFCF92DF92EF92FF920F931F93E82F0F
:100F9000F92F05C0015011092109310961F1908132
:100FA00096239417B9F305C001501109210931099D
:100FB00011F1908196239413F7CFC12CD12CE12C01
:100FC000F12C0AC08FEFC81AD80AE80AF80A0C15E3
:100FD0001D052E053F0579F080818623841791F346
:100FE0006C2D7D2D8E2D9F2D1F910F91FF90EF90D9
:100FF000DF90CF90089560E070E080E090E01F9176
:101000000F91FF90EF90DF90CF900895EFE6F2E020
:101010001382128288EE93E0A0E0B0E0848395838F
:10102000A683B7832CE031E03183208325EC30E0C8
:101030003587248724EC30E03787268720EC30E0A2
:10104000318B208B21EC30E0338B228B22EC30E093
:10105000358B248B26EC30E0378B268B118E128E4D
:10106000138E148EECE0F3E0138212828483958356
:10107000A683B7838EE191E091838083ECE1F3E076
:101080001382128280E391E09183808387E28483DC
:1010900080E1818782E0828713868EE190E09093E1
:1010A0001B0380931A0383EF90E0909319038093BE
:1010B00018030895789484B5826084BD84B58160F6
:1010C00084BD85B5826085BD85B5816085BD809113
:1010D0006E00816080936E0010928100809181008B
:1010E0008260809381008091810081608093810083
:1010F000809180008160809380008091B100846045
:101100008093B1008091B00081608093B0008091A5
:101110007A00846080937A0080917A008260809364
:101120007A0080917A00816080937A0080917A00C1
:10113000806880937A001092C10061E086E00E948E
:10114000220262E087E00E94220262E088E00E94C0
:10115000220262E089E00E94220262E08BE00E94AB
:10116000220262E08CE00E94220262E08AE00E9499
:10117000220261E082E00E94220260E083E00E949D
:101180002202E0917F02F091800282E08083E09170
:101190007B02F0917C021082E0917D02F0917E0250
:1011A0008FEC808310928702E0918302F091840299
:1011B00086E08083E0918102F091820280818061EB
:1011C0008083E0918102F091820280818860808337
:1011D000E0918102F0918202808180688083E091B9
:1011E0008102F091820280818F7D80836BE371E0C8
:1011F0008FE692E00E94230568E371E08FE692E0BB
:101200000E9423056DE471E08FE692E00E942305C1
:1012100068E371E08FE692E00E9423051092640279
:101220001092630210926202109261020E94DD022B
:101230008CE890E09093600280935F028DE890E0EC
:1012400090935E0280935D021092210380912603A9
:10125000823018F098E0909321038093240362E396
:1012600070E080E090E00E948302609127038CE1AF
:1012700093E00E94A20368EE73E080E090E00E9499
:10128000830260E38CE193E00E948C04CBE4D6E41B
:10129000CE010197F1F760E38CE193E00E948C04AA
:1012A0002197F1F760E38CE193E00E948C0483E5E1
:1012B00092E00197F1F760E28CE193E00E948C04E8
:1012C00060912103606240E08CE193E00E94A504FC
:1012D00084E08093220340E06CE08CE193E00E9484
:1012E000A5040E94BC0482E08093230340E066E0F2
:1012F0008CE193E00E94A50440E062E08CE193E081
:101300000E94A5048BE39FE10197F1F788E08093A9
:10131000270360E08CE193E00E94A20383E0282E83
:10132000312C03E210E060E082E00E94F401C10190
:101330000197F1F761E082E00E94F401C801019792
:10134000F1F760E082E00E94F4010E9400050E9433
:10135000F80D26E933E44BE05DE30E94AD0E20E09A
:1013600030E040E05FE30E94AD0E0E94C00D70933C
:101370006E0260936D028FE692E00E947E056AE045
:101380008FE692E00E948E0060E086E00E94F40109
:101390000E94BC0460E080E00E94C70469E571E03F
:1013A0008CE193E00E94230561E080E00E94C70485
:1013B00065E671E08CE193E00E94230580916B0269
:1013C00090916C02019771F461E08AE00E94C70479
:1013D00069E671E08CE193E00E94230561E086E01C
:1013E0000E94F40180916B0290916C02892B71F440
:1013F00061E08AE00E94C7046CE671E08CE193E052
:101400000E94230560E086E00E94F40187E00E94CC
:10141000CB01019771F481E090E020916B02309153
:101420006C02232B11F090E080E090936C0280938B
:101430006B0288E00E94CB01019709F062C08091A5
:101440006D0290916E0248970CF45BC081E090E0D1
:101450002091690230916A02232B11F090E080E024
:1014600090936A028093690280916D0290916E025E
:1014700048970CF442C061E086E00E94F40160E00D
:1014800082E00E94F401C1010197F1F761E082E07E
:101490000E94F401C8010197F1F760E082E00E9428
:1014A000F4010E9400050E94F80D26E933E44BE0A8
:1014B0005DE30E94AD0E20E030E040E05FE30E947B
:1014C000AD0E0E94C00D70936E0260936D028FE6A8
:1014D00092E00E947E056AE08FE692E00E948E0014
:1014E0000E94BC0460E080E00E94C70460E771E0F5
:1014F0008CE193E00E942305B7CF60E086E00E9474
:10150000F40189E00E94CB01019709F0B9C08091F4
:101510006D0290916E024B970CF4B2C081E090E0A6
:101520002091670230916802232B11F090E080E057
:10153000909368028093670220911A0330911B03F5
:1015400080916D0290916E02821793070CF494C003
:101550000E94BC0460E080E00E94C7046EE771E076
:101560008CE193E00E94230561E08EE00E94C704B5
:1015700060911A0370911B038CE193E00E94B40503
:1015800061E086E00E94F40160E082E00E94F401E4
:10159000C1010197F1F761E082E00E94F401C80106
:1015A0000197F1F760E082E00E94F4010E940005DB
:1015B0000E94F80D26E933E44BE05DE30E94AD0E96
:1015C00020E030E040E05FE30E94AD0E0E94C00DDD
:1015D00070936E0260936D028FE692E00E947E052A
:1015E0006AE08FE692E00E948E008BE00E94CB01C1
:1015F0000197C1F480916D0290916E024A9794F028
:1016000080911A0390911B03853691052CF40A965C
:1016100090931B0380931A036EE170E08FE692E0D3
:101620000E94B40564E670E080E090E00E948302CE
:101630008CE00E94CB010197C1F480916D029091E2
:101640006E024A9794F080911A0390911B038A309E
:1016500091052CF00A9790931B0380931A036EE177
:1016600070E08FE692E00E94B40564E670E080E0EE
:1016700090E00E94830260CF60E086E00E94F40167
:101680008AE00E94CB01019709F083C181E090E0DC
:101690002091670230916802232B11F090E080E0E6
:1016A0009093680280936702D0E0C0E080911803B5
:1016B000909119038C179D070CF467C10E94BC041C
:1016C00060E080E00E94C7046AE871E08CE193E08A
:1016D0000E94230561E08AE00E94C70460916502D0
:1016E000709166028CE193E00E947E0561E080E0EB
:1016F0000E94C704BE010D2E000C880B990B0E949E
:10170000F80D26E636E642EC51E40E944E0D6B01E0
:101710007C014B015C01AC019B010E941A0F65E941
:1017200071E081111BC026013701E89477F82FEF93
:101730003FEF4FE75FE7C301B2010E941A0F81112B
:10174000A4C02FEF3FEF4FE75FE7C301B2010E9454
:10175000490D18160CF099C069E971E08CE193E02D
:101760000E9423056091180370911903072E000C45
:10177000880B990B0E94F80D26E636E642EC51E400
:101780000E944E0D0E94C00D709366026093650228
:1017900061E086E00E94F40160E082E00E94F401D2
:1017A000C1010197F1F761E082E00E94F401C801F4
:1017B0000197F1F760E082E00E94F4010E940005C9
:1017C0000E94F80D26E933E44BE05DE30E94AD0E84
:1017D00020E030E040E05FE30E94AD0E0E94C00DCB
:1017E00070936E0260936D028FE692E00E947E0518
:1017F0006AE08FE692E00E948E008BE00E94CB01AF
:101800000197E1F480916D0290916E024A97B4F0D5
:1018100080911803909119038D509F4F9093190355
:101820008093180363EF70E08FE692E00E94B405A6
:1018300068EC70E080E090E00E9483028CE00E94FF
:10184000CB01019701F580916D0290916E024A974C
:10185000D4F08091180390911903863E21E09207FD
:1018600094F0835F9109909319038093180363EFB9
:1018700070E08FE692E00E94B40568EC70E080E0D2
:1018800090E00E948302219611CF2FEF3FEF4FE7A8
:101890005FE4C701B6010E94A80E18161CF46DE99A
:1018A00071E05CCF2FEF3FEF4FE75FECC701B60170
:1018B0000E94490D87FDF3CF20E030E0A901C70168
:1018C000B6010E94490D87FF0BC06DE28CE193E0E9
:1018D0000E948E0046015701B7FAB094B7F8B09451
:1018E0002AE037ED43EA5BE3C501B4010E94DD0C59
:1018F0004B015C010E94C70D6B017C010E94F60D3B
:101900009B01AC01C501B4010E94DC0C4B015C01E0
:101910002AE0B701A6018CE193E00E9432056EE255
:101920008CE193E00E948E0020E030E040E251E440
:10193000C501B4010E94AD0E4B015C010E94C70DB0
:101940006B01F12CE12C2AE0B701A6018CE193E0B8
:101950000E943205C701B6010E94F60D9B01AC0141
:10196000C501B4010E94DC0C20E030E040E251E40B
:101970000E94AD0E0E94C70DAB0170E060E02AE04E
:101980008CE193E00E943205EDCE60E086E00E949B
:10199000F40168EC70E080E090E00E94830280E057
:1019A00090E0892B09F4BFCC0E94FF00882309F442
:1019B000BACC0E940000B7CC5058BB27AA270E947F
:1019C000F40C0C946E0E0E94600E38F00E94670EAC
:1019D00020F039F49F3F19F426F40C945D0E0EF4B8
:1019E000E095E7FB0C94570EE92F0E947F0E58F309
:1019F000BA17620773078407950720F079F4A6F5F4
:101A00000C94A10E0EF4E0950B2EBA2FA02D0B0115
:101A1000B90190010C01CA01A0011124FF27591B33
:101A200099F0593F50F4503E68F11A16F040A22F39
:101A3000232F342F4427585FF3CF469537952795AA
:101A4000A795F0405395C9F77EF41F16BA0B620BA9
:101A5000730B840BBAF09150A1F0FF0FBB1F661FF0
:101A6000771F881FC2F70EC0BA0F621F731F841F33
:101A700048F4879577956795B795F7959E3F08F059
:101A8000B0CF9395880F08F09927EE0F979587951B
:101A900008950E94330E08F481E008950E94620DBB
:101AA0000C946E0E0E94670E58F00E94600E40F07B
:101AB00029F45F3F29F00C94570E51110C94A20E9B
:101AC0000C945D0E0E947F0E68F39923B1F35523A9
:101AD00091F3951B550BBB27AA2762177307840741
:101AE00038F09F5F5F4F220F331F441FAA1FA9F3D7
:101AF00035D00E2E3AF0E0E832D091505040E695C5
:101B0000001CCAF72BD0FE2F29D0660F771F881F25
:101B1000BB1F261737074807AB07B0E809F0BB0B18
:101B2000802DBF01FF2793585F4F3AF09E3F51052C
:101B300078F00C94570E0C94A20E5F3FE4F3983E9D
:101B4000D4F3869577956795B795F7959F5FC9F715
:101B5000880F911D9695879597F90895E1E0660F96
:101B6000771F881FBB1F621773078407BA0720F00F
:101B7000621B730B840BBA0BEE1F88F7E095089578
:101B80000E94C70D6894B1110C94A20E08950E9492
:101B9000870E88F09F5798F0B92F9927B751B0F06A
:101BA000E1F0660F771F881F991F1AF0BA95C9F7E1
:101BB00014C0B13091F00E94A10EB1E008950C94D0
:101BC000A10E672F782F8827B85F39F0B93FCCF383
:101BD000869577956795B395D9F73EF4909580955E
:101BE000709561957F4F8F4F9F4F0895E89409C07E
:101BF00097FB3EF490958095709561957F4F8F4F40
:101C00009F4F9923A9F0F92F96E9BB279395F69555
:101C1000879577956795B795F111F8CFFAF4BB0FD3
:101C200011F460FF1BC06F5F7F4F8F4F9F4F16C037
:101C3000882311F096E911C0772321F09EE8872FC1
:101C4000762F05C0662371F096E8862F70E060E07D
:101C50002AF09A95660F771F881FDAF7880F9695F6
:101C6000879597F90895990F0008550FAA0BE0E89A
:101C7000FEEF16161706E807F907C0F0121613064E
:101C8000E407F50798F0621B730B840B950B39F48E
:101C90000A2661F0232B242B252B21F408950A26F4
:101CA00009F4A140A6958FEF811D811D089597F934
:101CB0009F6780E870E060E008959FEF80EC0895F2
:101CC00000240A941616170618060906089500241B
:101CD0000A9412161306140605060895092E039495
:101CE000000C11F4882352F0BB0F40F4BF2B11F409
:101CF00060FF04C06F5F7F4F8F4F9F4F089557FD68
:101D00009058440F551F59F05F3F71F04795880F69
:101D100097FB991F61F09F3F79F087950895121600
:101D200013061406551FF2CF4695F1DF08C01616AC
:101D300017061806991FF1CF86957105610508945D
:101D40000895E894BB2766277727CB0197F9089574
:101D50000E94330E08F48FEF08950E94C00E0C9479
:101D60006E0E0E94600E38F00E94670E20F09523E0
:101D700011F00C94570E0C945D0E11240C94A20ECD
:101D80000E947F0E70F3959FC1F3950F50E0551F91
:101D9000629FF001729FBB27F00DB11D639FAA27C0
:101DA000F00DB11DAA1F649F6627B00DA11D661F0F
:101DB000829F2227B00DA11D621F739FB00DA11D30
:101DC000621F839FA00D611D221F749F3327A00DEA
:101DD000611D231F849F600D211D822F762F6A2F86
:101DE00011249F5750409AF0F1F088234AF0EE0FEB
:101DF000FF1FBB1F661F771F881F91505040A9F718
:101E00009E3F510580F00C94570E0C94A20E5F3F3C
:101E1000E4F3983ED4F3869577956795B795F79553
:101E2000E7959F5FC1F7FE2B880F911D96958795CB
:101E300097F908950E94330E880B990B0895A1E23B
:101E40001A2EAA1BBB1BFD010DC0AA1FBB1FEE1F34
:101E5000FF1FA217B307E407F50720F0A21BB30B7F
:101E6000E40BF50B661F771F881F991F1A9469F7FB
:101E700060957095809590959B01AC01BD01CF0157
:101E80000895EE0FFF1F0590F491E02D0994F8944A
:021E9000FFCF82
:101E920000004000140054000000000035019500CD
:101EA200C2008201F300D100E500000000007303CC
:101EB200460389041C033F032C031D03000000009A
:101EC200FA0495008904B5020D0A00556C7472611A
:101ED200736F6E69632073656E736F7200576174FE
:101EE2006572206C6162656C004E6F726D616C2070
:101EF2006D6F646500544150004F4E004F464600DE
:101F02006F766572666C6F77206D6F646500766FB1
:101F12006C756D65206D6F64650074696D65722006
:101F22006D6F6465006E616E00696E66006F766645
:021F32000000AD
:00000001FF
